:100000000C9435020C946D020C94ED1B0C946D0253
:100010000C946D020C946D020C946D020C946D02A4
:100020000C946D020C946D020C94DA230C94AE24A3
:100030000C948F1E0C946D020C946D020C946D0246
:100040000C946D020C946D020C946D020C946D0274
:100050000C946D020C94321F0C946D020C946D0282
:100060000C946D020C946D020C946D020C946D0254
:100070000C946D020C946D020C946D020C946D0244
:100080000C946D020C946D020C946D020C946D0234
:100090000C946D020C946D020C946D020C946D0224
:1000A0000C946D020C946D020C946D0214001A00F5
:1000B00008001500170004001600070009000A00D8
:1000C0001D001B000600190005002B43E100000085
:1000D000000000001C0018000C00120013000B00B0
:1000E0000D000E000F003400110010003600370024
:1000F00038002C0028410000000000001E021F02F2
:10010000330033022D02310031022F0226022F006C
:100110000000000030022702300001000251000000
:10012000000000002E002400250026002E022502DB
:100130002100220023002D0027001E001F002000A8
:100140003800010001000000000000001E141F1410
:1001500020142114BD00A800AA00AE00A900BE0012
:10016000B000AC00AD00AB000000010001000000D9
:1001700000000000000024023500350200000000ED
:100180002102220223022D0200001E021F02200271
:1001900000000100010000000000000029005004E0
:1001A00009014F04490004550855025501551455DD
:1001B0001D011B0106012B001901010001000000B7
:1001C000000000004B004A0052004D0039004E0074
:1001D000500051004F004C0028002A00E400E200CB
:1001E0006500010004510000000000000000000054
:1001F00009134600000004550855025501551455D1
:100200001D131B1306132B0219130100010000001C
:100210000000000045004000410042000000440092
:100220003D003E003F00000043003A003B003C0020
:1002300000000100010000000000000000000000BC
:10024000000000002A2B2800000000000000000031
:100250000000000000000029000000002C1E3420D7
:10026000212224342627252E362D3738271E1F20FD
:100270002122232425263333362E37381F04050642
:100280000708090A0B0C0D0E0F1011121314151686
:100290001718191A1B1C1D2F3130232D3504050684
:1002A0000708090A0B0C0D0E0F1011121314151666
:1002B0001718191A1B1C1D2F3130354C0000000077
:1002C000000000000000000000000000000000002E
:1002D000000000000000000000000000000000001E
:1002E0007E0F00D4FFFFFFC700000078220341000B
:1002F0007200630068006900740065007500740096
:100300006800690073002000640075007800000038
:10031000100374006100700069006F006B006900D9
:1003200000000403090409023B00020100A0FA09CD
:100330000400000103010100092111010001224014
:100340000007058103080001090401000103000002
:100350000009211101000122B600070582032000D7
:10036000011201000200000008ABC239390100018E
:1003700002000105010902A10185020901A1000590
:100380000919012908150025019508750181020543
:1003900001093009311581257F950275088106090B
:1003A000381581257F950175088106050C0A3802EC
:1003B0001581257F950175088106C0C0050109805A
:1003C000A101850319012AB700150126B70095017F
:1003D00075108100C0050C0901A101850419012ACD
:1003E000A002150126A002950175108100C005012B
:1003F0000906A1018506050719E029E71500250171
:100400009508750181020507190029EF15002501DE
:1004100095F07501810205081901290595057501F9
:100420009102950175039101C005010906A101051D
:100430000719E029E7150025019508750181029546
:1004400001750881010507190029FF150026FF0025
:10045000950675088100050819012905950575019E
:100460009102950175039101C00011241FBECFEFC9
:10047000DAE0DEBFCDBF04B603FE18C08091FE02F5
:100480009091FF02A0910003B09101038730904B3F
:10049000A740B04B59F41092FE021092FF02109246
:1004A000000310920103E0E0F8E3099511E0A0E0F9
:1004B000B1E0E8E7FEE402C005900D92AC3BB10765
:1004C000D9F722E0ACEBB1E001C01D92AE3FB2071C
:1004D000E1F70E94AE150C9424270C9400009C01B7
:1004E0003A9521153F4150F5FC01EE27F170BC0112
:1004F00066277270AC01442754709C012227387023
:1005000094FF0EC080E1EF2B09F480E0672B09F027
:100510008062452B09F08064232B89F08068089560
:1005200081E0EF2B09F480E0672B09F08260452B16
:1005300009F08460232B19F08860089580E0089505
:10054000CF93DF93EB010E946F02FE010995DF91CB
:10055000CF910895CF93DF93EC01805E91090897C6
:1005600020F067EF77E0209711F464E975E0CE01A1
:100570000E94A0028C2F0E948904DF91CF910895E0
:10058000CF93DF93EC010E941A05CE01805E9109A2
:10059000089720F06EEF77E0209711F46BE975E093
:1005A000CE010E94A002DF91CF910895CF93DF93F7
:1005B000EC010E94AA02C933D10549F42FEF87EE5E
:1005C00093E0215080409040E1F700C00000CE0150
:1005D0000E94C002DF91CF91089581E0089581E0EB
:1005E00008950E94EF02089508950E94F40208956C
:1005F000A5E0B0E0EEEFF2E00C94902649835A8338
:100600003091BF0189819A81311119C0662399F017
:10061000222389F00E94F009182F682F89819A817E
:100620000E94CC0969817A81812F0E947D102596D4
:10063000E3E00C94AC260E94DE09182FF3CF0E9451
:10064000F00969817A81F1CFFC01262F4081518127
:100650006281738184810E94F802089581E0089587
:10066000CF93DF93EC0160E00E942403BE010E945F
:10067000F502DF91CF9108950E94061208950E941D
:100680000A12089508950E941B080E9442032FEF4A
:1006900084E39CE0215080409040E1F700C00000DE
:1006A00008950E9443030E94561F08950E94430329
:1006B0000E947A1F08950F931F93CF93DF938C01AD
:1006C00061E00E942403EC01B8010E94F102811153
:1006D00006C080E0DF91CF911F910F910895B8017E
:1006E000CE010E9412198823A1F3B801CE010E9405
:1006F000FC1A882371F3B801CE010E9431198823B6
:1007000041F3B801CE010E946E1A882311F3F8015B
:100710008281882361F0CB35FDE5DF0701F158F4D4
:10072000C115ECE5DE0791F0CF3DDC4591F0C80145
:100730000E94ED02CFCFCD358DE5D80769F090F05E
:10074000C83ADD45A1F70E945603C3CF0E9451036A
:10075000C0CF0E94B90EF7CF0E94F30DE8CF0E94E0
:10076000FD0DE5CF0E94010EE2CF0E946C1E0E949B
:100770003A0408950E943E040E94711E0895B0E05C
:10078000A0E0E5ECF3E00C948C26E82FF0E0E45CCC
:10079000FD4FD490282F26952695269530E0F90117
:1007A000E452FD4F0491877010E0082E02C01595A9
:1007B00007950A94E2F701701127F901E453FD4F00
:1007C000E490F12C082E02C0F594E7940A94E2F725
:1007D00091E0E922FF24F901E454FD4FC491D0E0F7
:1007E00002C0D595C7958A95E2F7C170DD2701153E
:1007F000110519F081EE0E948904E114F10419F049
:1008000086EE0E9489048D2D0E948B05E114F1046F
:1008100019F086EE0E941A050115110519F081EEF6
:100820000E941A05CD2B19F08CE20E948B05CDB7E2
:10083000DEB7E7E00C94A826982F9F709A50963068
:1008400020F0805D0E94BF030895895AFBCF089570
:100850000E942704089581E008950E942B040895C2
:100860000895CF93C82F0E9428048C2F0E942D0436
:10087000CF91089580E00E94310408950E94131DD5
:100880000E94310408950E94131D9091BE01981793
:1008900021F08093BE010E9431040895ABE0B0E0E6
:1008A000E4E5F4E00C9491264F83588769877A87B2
:1008B0008B8761110E943E0D1E821D8285E0FE0124
:1008C0003796DE01119601900D928A95E1F78C81A1
:1008D0009D81892B61F449815A816B817C818D8155
:1008E0009E810E94640C2B96E2E00C94AD268981D7
:1008F0009A8189238F3F79F3CE0101960E942E03BE
:100900008111E9CFF0CFFC01808191810E942A0AF8
:100910000895CF93C82F8823C9F08238C9F40E9464
:10092000131D81FD13C089E30E94F30C0E945F0D2B
:100930002FEF81EE94E0215080409040E1F700C01D
:10094000000089E30E94FB0C0E945F0DCF91089587
:100950008338A1F40E94131D80FDF8CF83E50E9427
:10096000F30C0E945F0D2FEF81EE94E02150804048
:100970009040E1F700C0000083E5E4CF8438A1F4A3
:100980000E94131D82FDE2CF87E40E94F30C0E94B7
:100990005F0D2FEF81EE94E0215080409040E1F711
:1009A00000C0000087E4CECF8CEF8C0F813A90F42A
:1009B0006C2F80910001909101010E94921D88236B
:1009C00029F08C2F0E94FB0C0E945F0D8C2F0E943F
:1009D000F30CBACF80E28C0F883048F4C77081E006
:1009E00001C0880FCA95EAF70E941E0DADCFEBE556
:1009F000EC0FE33040F4F0E0EA57FE4F808190E0E6
:100A00000E94521DA3CFE8E5EC0FE73150F4F0E06F
:100A1000EE0FFF1FE85AFE4F808191810E94681DF2
:100A200095CFCD3E08F492CF8C2F0E9432160E94B3
:100A300005178CCF882309F455C0823879F40E94B9
:100A4000131D81FF4FC089E30E94F30C0E945F0DCC
:100A500089E30E94FB0C0E945F0D0895833859F4CE
:100A60000E94131D80FF3EC083E50E94F30C0E948C
:100A70005F0D83E5EECF843859F40E94131D82FF89
:100A800031C087E40E94F30C0E945F0D87E4E1CF40
:100A90009CEF980F913AE8F290E2980F983050F45A
:100AA000877091E001C0990F8A95EAF7892F0E941B
:100AB000240DD1CF9BE5980F933028F490E080E08F
:100AC0000E94521D089598E5980F973128F490E000
:100AD00080E00E94681D08958D3E20F00E948C16D3
:100AE0000E94051708951F93CF93DF93182FEB01F2
:100AF0000E948904209739F4812F0E941A05DF9102
:100B0000CF911F9108958FE99FE00197F1F700C001
:100B100000002197EFCF70E060E0893311F460E5C9
:100B200070E00E9473050895882321F00E941E0D35
:100B30000E945F0D0895882321F00E94240D0E94D9
:100B40005F0D0895B0E0A0E0E8EAF5E00C948A2695
:100B50006C01D62FC72FFC011281F580F2949FE023
:100B6000F9220E94140DE82E8823B9F0E12E1123FA
:100B7000A1F08C2F807F803421F080E28D0F8830AF
:100B8000D0F08091D30282FF16C082E00E94C20D95
:100B90000E94140D91E0E82EE926BC2EB2948FE05D
:100BA000B822FBE0FB1508F468C0EB2DF0E0EA5D2D
:100BB000F84D0C947B26E12CF0CF0C2F0F70C07FEA
:100BC00011F00295007F112399F0002359F080E283
:100BD0008D0F883010F0D11107C0802F0E941E0D9C
:100BE0000E945F0D8D2F41C0802F0E94310DF8CFE4
:100BF0008D2F0E941A05002309F43FC080E28D0F5B
:100C0000883010F0D11104C0802F0E94240D03C041
:100C1000802F0E94370D0E945F0D2FC00C2F0F7088
:100C2000C07FC03211F00295007FDD2381F0D1300A
:100C300009F463C0112309F46DC0FF2009F463C0F7
:100C4000F601858180FFCECF8F7085835CC0809157
:100C5000D30282FD33C0112359F0002329F0802FE5
:100C60000E941E0D0E945F0D80E00E94890405C055
:100C700080E00E941A050111C7CFEB2DE850FF0B51
:100C8000349720F40E94131D0E943104EE2089F055
:100C90000E94100D80FD0DC0F60112820E940A0D07
:100CA0000E94D408C6010E94CD070E940A0D0E942E
:100CB000F608CDB7DEB7E9E00C94A626112389F03B
:100CC000F11006C00E94410D802B0E949405D5CFE3
:100CD00021E0F212F7CF0E94410D802B0E94480DB7
:100CE000CCCFF11006C00E94550D802F0E949B05AD
:100CF000C4CF31E0F31609F2F6CF112331F085E0CD
:100D00008F1508F4BACF802FE0CF94E09F1508F438
:100D1000B4CFEBCFFF2049F3D93349F4FFEF27EEEF
:100D200033E0F15020403040E1F700C000008D2F4B
:100D30000E941A05A2CF8C2F86958695837069F044
:100D4000813009F09ACF8D2F9C2F9370111102C022
:100D500090E080E00E94681D90CF8D2F9C2F9370B3
:100D6000111102C090E080E00E94521D86CF8D2FAD
:100D7000112329F00E9432160E9405177ECF0E948F
:100D80008C16FACF8C2F837009F041C0111175CFEA
:100D90004D2F429546954770440F440F0D2F0F700D
:100DA00010E030E020E0042E04C0000F111F221FCD
:100DB000331F0A94D2F760E070E0CB01D4FF0FC07C
:100DC0006FE070E080E090E004C0660F771F881F3E
:100DD000991F4A95D2F76095709580959095C69524
:100DE000C695C370602B712B822B932BC23049F0B8
:100DF00058F4C13019F00E947F083FCF0E946C0860
:100E00003CCF0E94920839CF0E94690836CF869560
:100E1000112311F08C2F8170882309F42ECF4D2FD0
:100E2000429546954770440F440F0D2F0F7010E008
:100E300030E020E0042E04C0000F111F221F331FDA
:100E40000A94D2F760E070E0CB01D4FF0FC06FE0EE
:100E500070E080E090E004C0660F771F881F991F44
:100E60004A95D2F76095709580959095C695C695F0
:100E7000C370602B712B822B932BC23049F058F436
:100E8000C13019F00E944F09F8CE0E943C09F5CEFE
:100E90000E946209F2CE0E94AB08EFCECF70112300
:100EA00029F08C2F0E94D4088D2F0FCF8D2F0E94F8
:100EB0009B058C2F0E94F608E0CED23F51F160F4E2
:100EC000D03FB9F0D13F81F0112309F449C0F110AE
:100ED00089CE8C2F8F7121C0D33F11F1D43FA1F760
:100EE0008091D30282FD26C08C2F8F71112311F3C4
:100EF00014C0112349F084E08F1508F4BECE8C2F66
:100F00008F710E941A09B9CE95E09F1508F4B5CEED
:100F1000F6CF8C2F8F711111CDCF0E94D408ADCE9A
:100F2000112329F08C2F8F710E94BE08A6CE0E943B
:100F3000B808A3CE112349F0CF718C2F0E94D4089A
:100F400063E08C2F0E94A40D98CE81E00E94C20D18
:100F5000E1E0EF1508F091CE82E00E94C20D8DCE47
:100F6000F110DACE8C2F8F71A5CF0F931F93CF93F3
:100F7000DF93EC01688179818A810E94350A8C01B6
:100F80000E9475090E946808B801CE010E94A2055E
:100F9000DF91CF911F910F910895CF93DF93EC01D3
:100FA0008B819C81892B29F08881998189238F3FAE
:100FB00051F4DF91CF910895CE010E94B507CE0183
:100FC0000E943003F6CFCE010E945B038111F4CF63
:100FD0000E94140D882369F38A81882351F380913C
:100FE000D30282FFE6CF82E00E94C20DE2CF8823C7
:100FF00021F00E94310D0E945F0D0895882321F099
:101000000E94370D0E945F0D089590E080E00E94DD
:10101000521D90E080E00E94681D0E943E0D0E94DB
:101020005F0D0E9416180E94051708950E94030D77
:101030000E94050808950E942E0D0E94160808952A
:1010400092959F70963091F058F4925F9F70923015
:1010500058F4803F19F030F4883E30F481E0089570
:101060009A5FF4CF843FD1F380E00895883EB0F3D7
:10107000813FD1F7F3CFFC01808191810E942A0A40
:101080000E9420080895A5E0B0E0E9E4F8E00C949F
:1010900091262596E2E00C94AD26A6E0B0E0E3E5CB
:1010A000F8E00C9491262696E2E00C94AD26089583
:1010B0000E94570808950E9458086093DD017093BC
:1010C000DE018093DF019093E0010E9405080895FE
:1010D00008950E945B0808950F931F930091DD010E
:1010E0001091DE012091DF013091E001602B712B26
:1010F000822B932B0E945B081F910F9108950F93F1
:101100001F930091DD011091DE012091DF013091EC
:10111000E00160237123822393230E945B081F91C7
:101120000F9108950F931F930091DD011091DE013F
:101130002091DF013091E0016027712782279327FA
:101140000E945B081F910F9108950E94570808950F
:101150000E94A50808950E94A8086093D901709381
:10116000DA018093DB019093DC010E940508089569
:1011700060E070E0CB010E94AB0808950F931F93CD
:1011800041E050E060E070E08A019B0104C0000F84
:10119000111F221F331F8A95D2F7C901B8010E947F
:1011A000AB081F910F9108950F931F9341E050E0FA
:1011B00060E070E004C0440F551F661F771F8A95DA
:1011C000D2F78091D9019091DA01A091DB01B09121
:1011D000DC018A019B01082B192B2A2B3B2BC9010F
:1011E000B8010E94AB081F910F9108950F931F93B0
:1011F00041E050E060E070E004C0440F551F661FFE
:10120000771F8A95D2F7CB01BA01609570958095CA
:1012100090950091D9011091DA012091DB01309174
:10122000DC0160237123822393230E94AB081F916A
:101230000F9108950F931F9341E050E060E070E03C
:1012400004C0440F551F661F771F8A95D2F78091FF
:10125000D9019091DA01A091DB01B091DC018A0102
:101260009B01082719272A273B27C901B8010E949B
:10127000AB081F910F9108950F931F930091D9010F
:101280001091DA012091DB013091DC01602B712B90
:10129000822B932B0E94AB081F910F9108950F93FF
:1012A0001F930091D9011091DA012091DB01309157
:1012B000DC0160237123822393230E94AB081F91DA
:1012C0000F9108950F931F930091D9011091DA01A6
:1012D0002091DB013091DC01602771278227932761
:1012E0000E94AB081F910F9108950895262F277033
:1012F00091E001C0990F2A95EAF723E0769567956A
:101300002A95E1F725E0269FF001279FF00D112493
:10131000E40FF51F50E040E0682F70E08191DF019D
:1013200011979B01042E02C0369527950A94E2F787
:10133000217021952827292328272C934F5F5F4F61
:101340004530510559F70895A82FA77023E09695C9
:1013500087952A95E1F725E0289FF001299FF00D58
:101360001124E60FF71F50E040E080E0219130E0CB
:101370000A2E02C0369527950A94E2F7217033278A
:10138000042E01C0220F0A94EAF7822B4F5F5F4FB1
:101390004530510559F70895262F983070F485305F
:1013A00060F4682F70E085E0989F600D711D112436
:1013B00040EC51E0822F0E9476090895292F983041
:1013C00068F4853058F490E060EC71E035E0239FDC
:1013D000800D911D11240E94A409089580E00895B4
:1013E000B0E0A0E0E6EFF9E00C948A268C01C09012
:1013F000D901D090DA01E090DB01F090DC0180911E
:10140000DD019091DE01A091DF01B091E001C82AD9
:10141000D92AEA2AFB2ACFE1D0E0BC2ED701C601A7
:101420000C2E04C0B695A795979587950A94D2F788
:1014300080FD09C0219788F7B12C8B2DCDB7DEB781
:10144000E9E00C94A626B8018C2F0E949810019711
:1014500089F3F3CFCF93DF93EC010E94F009BE0133
:101460000E949810DF91CF9108951F93CF93DF933F
:10147000EB019091BF01992339F0CB010E942A0A18
:10148000DF91CF911F910895882369F0CB010E94CD
:10149000F009182F682FCE010E94CC09BE01812FC0
:1014A0000E949810EDCFCB010E94DE09182FF6CFD5
:1014B0001F93CF93DF93C091E10116E08091E20189
:1014C0008C1304C0DF91CF911F910895D0E01C9F31
:1014D000F0011D9FF00D1124ED51FE4F408151810F
:1014E00062817381848195810E944D082196C77025
:1014F000E5CF409113025091140260911502709152
:10150000160280911702909118020E944D080895CA
:101510001F93CF93DF9380911802807F09F049C019
:1015200080911502882309F444C08091E101C091A3
:10153000E2016091130270911402A0911602B09121
:101540001702D62FD72316E0C81799F190E010970D
:1015500011F0DF3F19F401968770F6CF189F9001C4
:10156000199F300D1124F901ED51FE4F41814713B0
:10157000F2CF40814613EFCF42814111ECCF43813E
:1015800054814A1B5B0B483C510528F78091180297
:101590008F70806180931802F901E851FE4F8081BD
:1015A0008F708061808383E192E00E94CD070E946A
:1015B000580ADF91CF911F910895A1E1B0E0E3EEC9
:1015C000FAE00C9489268C0185E0F801DE011D9675
:1015D00001900D928A95E1F7F801E28083E1C82E2F
:1015E00082E0D82E60911602709117026115710584
:1015F00009F44EC19091130220911402892F822385
:101600008F3F09F445C140815181A380B480F0909F
:101610001502F501E61BF70BFF2009F4EAC08091E3
:101620001802382F307FE83CF10508F0A3C03111D3
:101630006DC0FE2C251316C0941314C0E11012C007
:101640008F708061809318020E94790AC6010E94FF
:10165000CD0780911802F80185838F2D6196EAE00D
:101660000C94A526A114B10429F0842F85238F3F63
:1016700009F027C180E0F82FF170DF2E80FF3CC019
:101680008091E1012091E20136E0821315C04D877F
:101690005E878D859E850E942A0A292F22952F70AC
:1016A0002230F0F0243018F59F70F1F0F8019581A8
:1016B000907FD1F4D12C1EC090E0389FF001399F6B
:1016C000F00D1124ED51FE4F6181651306C060815C
:1016D000641303C06281E6120FC001968770D5CFF4
:1016E0009F7011F0882331F3805E883018F3C801B1
:1016F0000E94CD07FD2CB1CFEE2009F4AECF809132
:101700001802816080931802F12CA7CF251306C020
:10171000941304C0F801EE2009F487C0C8010E94A8
:101720003B08882319F1EE2009F1809118028032DC
:1017300070F0209113023091140238872F8319869C
:10174000BB86AA868C87CE0107960E94CD0786E0CD
:10175000F801A3E1B2E001900D928A95E1F70E94B1
:10176000880A0E94790AFF24F39477CFC8010E9467
:10177000CD07F9CF311113C07A2DB98AA88A6E2D01
:1017800089890E94430883E192E00E94CD0786E0A8
:10179000F60111928A95E9F70E94790AB5CF2513CF
:1017A0000FC094130DC0E1100BC0F8018583C80170
:1017B0000E94CD0786E0F60111928A95E9F74DCF98
:1017C000C8010E943B08882389F2EE2079F28091BB
:1017D0001802803208F4BBCF20911302309114021A
:1017E0003A8329831B82BD82AC828E83CE0101960F
:1017F000ACCFE83CF10508F03EC0FE2CEE2009F429
:10180000B5CF25132AC0941328C08091180280FDFB
:101810001BC0982F907FC1F0F8018583903F31F075
:10182000982F907F905F8F70892B8583C8010E94CD
:10183000CD0786E0F801A3E1B2E001900D928A9510
:10184000E1F70E94790A09CF86E0F801A3E1B2E04E
:1018500001900D928A95E1F700CFC8010E943B08E4
:10186000811175CF80911802816080931802C801A0
:101870000E94CD07F2CE7A2DB98AA88A6E2D898969
:101880000E94430886E0F60111928A95E9F7D9CFC4
:10189000EE2009F46BCFC8010E943B08F82E882384
:1018A00009F464CF86E0F801A3E1B2E001900D9263
:1018B0008A95E1F783E192E00E9483040E94880AFE
:1018C000C0CF81E08E25D7CEACE0B0E0EAE6FCE008
:1018D0000C9490264F83588769877A878B879C87DB
:1018E000CE0107960E94DD0A882369F08A859B85D0
:1018F000892B39F04F815885842F85238F3F09F03C
:101900006BC016E05FC086E0FE013796DE011196DF
:1019100001900D928A95E1F78A859B85892B89F341
:1019200088859F8189238F3F61F32091E20130E018
:10193000C9010196877099274091E101481719065E
:1019400071F40E941B081092E2011092E10186E0FE
:10195000E3E1F2E0DF011D928A95E9F7D2CF96E04C
:10196000929FD001939FB00D1124AD51BE4FFE0147
:10197000319601900D929A95E1F78093E2010E94D1
:10198000580ABFCF819FC00111248D519E4F0E94E4
:10199000DD0A8823E9F0E091E1011E9FF0011124A6
:1019A000ED51FE4F40815181628173818481958127
:1019B0000E944D088091E10190E00196877099277F
:1019C0008093E1018091E1019091E2018913DACFE6
:1019D0002C96E3E00C94AC2669857A858B859C85F2
:1019E0000E944D088ECF682F8091000190910101D7
:1019F0000E94121E0895682F8091000190910101AC
:101A00000E94201E089580910001909101010E9482
:101A10002E1E0895809139028595859585950895A6
:101A2000809139028770089590913902977081E012
:101A300009F480E0089580915C02089590915C0221
:101A4000892B80935C020895809590915C02982385
:101A500090935C02089580935C02089510925C025A
:101A6000089590915B02892B80935B020895809585
:101A700090915B02982390935B02089510925B0211
:101A8000089580913A02089508950E94440D0895A2
:101A90009091D30292FF08C090913A02981721F0DA
:101AA00080933A020E94450D089580913A0288235E
:101AB00029F010923A0280E00E94450D0895CF93DC
:101AC000DF93E0910001F091010180915C0280833D
:101AD000E0910001F0910101808190915B02892BDE
:101AE000808390913A02992381F0E0910001F09176
:101AF00001018081892B80838091000190910101F7
:101B00000E947E1D81110E94550DC0910001D0914F
:101B1000010140E250E069E172E0CE010E94CC2672
:101B2000892B59F080E2FE01A9E1B2E001900D920B
:101B30008A95E1F7CE010E942A1DDF91CF91089589
:101B400008950E94A00D08959091D30292FF11C0B4
:101B500098E0899F90011124622B609339020E94C2
:101B6000D408809139028595859585950E94A10DAF
:101B700008950E94D40808951092390280E00E94CE
:101B8000A10D08959091390280958923809339029F
:101B9000282F277091F4282F082E000C330B921752
:101BA000130659F09091D30292FF07C08595859551
:101BB00085950E94F6080E94BC0D08959091D3026D
:101BC00092FB222720F9281769F080FB92F9909365
:101BD000D3028091D2029091D3020E942F0E82E014
:101BE0000E94C20D08958091D30282FB882780F95C
:101BF00091E089270E94DE0D089581E00E94DE0DAC
:101C0000089580E00E94DE0D08956FEF7FEF90E071
:101C100080E00E940E27089590E080E00E94EA266E
:101C200021E0883E9E4F09F020E0822F089582E057
:101C300090E00E94E226089583E090E00E94E22670
:101C40000895CF9384E090E00E94E226C82F82E2BC
:101C500090E00E94E226982F8C2FCF910895CF9389
:101C6000C92F682F84E090E00E94F0266C2F82E25A
:101C700090E00E94F026CF910895AB01BC018FE067
:101C800090E00E9402270895AB01BC0183E190E03F
:101C90000E940227089560E070E0CB010E94440E8C
:101CA000089560E070E0CB010E943D0E0E944B0E53
:101CB000089568EE7EEF90E080E00E940E2760E0DD
:101CC00082E090E00E94F02660E083E090E00E94D5
:101CD000F0261092DD011092DE011092DF011092C9
:101CE000E00160E084E090E00E94F02664E082E29F
:101CF00090E00E94F02660E085E090E00E94F026EF
:101D000060E086E090E00E94F0266FEF87E090E0D0
:101D10000E94F02640E050E0BA0188E090E00E9486
:101D2000022760E08DE090E00E94F02640E050E065
:101D3000BA0188E190E00E94022760E087E190E02C
:101D40000E94F02640E050E0BA018CE190E00E9451
:101D5000022770E060E080E290E00E940E2740E001
:101D600050E0BA0188E190E00E9402270E94510EE3
:101D700008950E94590E08958EE090E00E94E22698
:101D800091E0811101C090E0892F0895682F8EE0C5
:101D900090E00E94F02608950E94FB1E6093690265
:101DA00070936A0280936B0290936C026093650259
:101DB0007093660280936702909368020895089575
:101DC00008950E94E00E089508950E94E40E08957B
:101DD00087EB91E10E94091D0E94DF0E0E94E10E37
:101DE00008950E94A5130895089508950E94F40E81
:101DF0000E94F50E08950E94E0110E9430040E9496
:101E0000661808950E94E61E0E9477110E94BD1375
:101E10000E94D5120E94FB0E0E9424180E94C71334
:101E20000E94E50E0895AAE0B0E0E9E1FFE00C941D
:101E300087260E942913982E81110E94CC0E8DE5D1
:101E4000A82E82E0B82E10E000E0802E802F0E94A5
:101E50000D12E82EF501C1905F01C816B1F1809115
:101E60006D0281FD0E941312D12CFF24F394CE2425
:101E70008C2D8F2129F10E94F10E882399F0DE82AA
:101E80008F82EF2081E009F480E088870E94EF1EB6
:101E90008160782F9A8789874E815F8168858A85DE
:101EA0000E944E04F801E35AFD4F8081F826F0822B
:101EB00081E0911001C080E02A96ECE00C94A3260A
:101EC000D394FF0CF5E0DF12D3CF0F5F1F4F083024
:101ED000110509F0BACF8FEF89838A831B820E9494
:101EE000EF1E8160782F9D838C8349815A816B819D
:101EF0008D810E944E04DCCF0E94130F0E94A51317
:101F00000E9421170E9443040895CF93DF930E94FB
:101F10009D10EC01811521E5920708F042C0811562
:101F200030E5930708F09DC0883E910530F5803E6E
:101F3000910508F092C0883A910588F4853A910598
:101F400008F084C08130910509F487C0009709F436
:101F500084C0049708F081C0D0E0C0E07EC08F3B11
:101F60009105D0F7C85AD0E0CC0FDD1FC757DE4F20
:101F70000990D881C02DD46470C08115904250F46E
:101F8000C11581E0D80708F068C0CD3ED10520F327
:101F9000D06563C0C11590E4D907F0F2DF70D06A54
:101FA0005CC0811525E5920700F5811534E593079E
:101FB00008F08BC0811543E5940708F073C0C11584
:101FC00082E5D80708F469C0CE018370992721E023
:101FD00030E002C0220F331F8A95E2F7C695C695FE
:101FE00080E2C89FE001112454C0C11599E5D907CA
:101FF000A8F4C11528E5D20708F06CC0C11536E574
:10200000D30708F0A9CF8C2F0E943411C82FD0E03D
:10201000DC2FCC27CC27DF71D0621FC0C1154AE569
:10202000D40708F45CC0CE0190568115904208F0A8
:1020300093CF8D2F8F710E94341190E0982F8827B5
:1020400088279F719C012C2BE901E6CFC55AD0E06F
:10205000C954DE4FC881D0E0D064CE01DF91CF916A
:102060000895E4E096958795EA95E1F783702C2F23
:1020700026952695237040E2249F90011124382B49
:102080008C2F8370C1E0D0E002C0CC0FDD1F8A9599
:10209000E2F7C22BD32BDC68E0CFDC2FCC27C16F5B
:1020A000D06ADBCF8370992721E030E002C0220F95
:1020B000331F8A95E2F7C695C69590E2C99FE00165
:1020C0001124C22BD32BDA68C8CFD82FCC27C46FEA
:1020D000D06AC3CFDC2FCC27C06FD06ABECF8C2F85
:1020E0008F700E94341134E0D695C7953A95E1F788
:1020F000CF709C2FEC01D069B0CF972F7830A8F427
:10210000653098F470E025E0929F600D711D1124F8
:10211000FB0198E2899FE00DF11D1124EE0FFF1FD6
:10212000E455FF4F85919491089580E090E00895E3
:102130000E947D100E94850F089582389105B1F1AB
:10214000B0F48133910509F475C048F489329105E2
:1021500009F469C08A32910509F473C00895853382
:10216000910509F459C08933910501F10895833E21
:102170009105A9F138F4803E9105F9F0823E910570
:1021800049F10895863E9105A9F1873E9105C9F16F
:10219000843E910519F52091D30221FF1FC0809143
:1021A000D20284FD14C087EE90E008952091D202FF
:1021B0002370A1F080EE90E008952091D20220FDDE
:1021C00047C03091D30230FF09C024FF44C090E0E3
:1021D00080E004C02091D20222FDF7CF0895209123
:1021E000D20222FD3BC03091D30230FDE3CF24FF69
:1021F000F5CFEDCF2091D20223FFF0CF24FDE7CF22
:10220000D2CF2091D20223FD2CC03091D30231FFD6
:10221000EECF84EE90E008952091D20225FFDECF2C
:1022200089E290E008952091D20225FFD7CF85E37F
:1022300090E008952091D20226FFD0CF8AE290E06C
:1022400008952091D20226FFC9CF81E390E008953E
:1022500089E390E0089583EE90E0089582EE90E0A7
:10226000089586EE90E008959091D20292FF06C004
:10227000282F28712830F9F4877F846093FF06C0E7
:10228000282F28712831F1F4877E84612091D302B0
:1022900020FF06C0382F38713830D9F4877F81602D
:1022A00021FF06C0282F28712831D1F4877E816153
:1022B00094FD877E0895282F24712430F9F68B7FB2
:1022C0008860DCCF282F2471243101F78B7E886150
:1022D000DDCF382F3171313019F78E7F8860E0CF34
:1022E000282F2171213121F78E7E8861E1CF109254
:1022F000CE021092CF021092D0021092D102089515
:10230000CF92DF92EF92FF926B017C010E94A513A6
:1023100081110EC00E94FB1EC61AD70AE80AF90AEC
:10232000C092CE02D092CF02E092D002F092D102BF
:10233000FF90EF90DF90CF9008950F931F930E942E
:10234000A513882329F00E94FB1E1F910F91089569
:102350000E94FB1E0091CE021091CF022091D0026C
:102360003091D102600F711F821F931FEECF80E06A
:1023700008950E94050E0895CF930E9429138FE3BC
:102380009CE90197F1F700C000000E9429130E9408
:10239000A213C4E08111C0E08C2F0E940D1290E0C6
:1023A00002C095958795CA95E2F780FF04C00E9408
:1023B000B9110E94561FCF9108950E94BC11089533
:1023C0000E940C0E811102C00E94B90E0E94170ECD
:1023D00080936D020E94210E9093D3028093D202CB
:1023E0000E94DD110E941C0E682F70E090E080E0DA
:1023F0000E9469086091D9017091DA018091DB0136
:102400009091DC010E94A808089508950E94051289
:10241000089508950E9409120895E82FF0E0E3520C
:10242000FD4F80810895089508950E941412089523
:10243000EF92FF921F93CF93DF9300D000D0CDB7E0
:10244000DEB70E94A513182F6091E502882309F4D6
:1024500047C019821A821B821C82862F90E09E013F
:102460002F5F3F4F7901B90183529D4F0E94D513D1
:102470008823E9F08091D40290E044E050E0B70175
:1024800083529D4F0E94CC2621E020936E02892B1F
:10249000C9F410E00E943F03812F0F900F900F901E
:1024A0000F90DF91CF911F91FF90EF900895809151
:1024B0006E02882371F384E0F70111928A95E9F79F
:1024C00010926E02E091D402F0E0E352FD4F898158
:1024D0009A81AB81BC8180839183A283B383DACF5D
:1024E00070E063527D4F8091D40290E083529D4F03
:1024F0000E945C140E941512CFCF1F93CF93DF93DD
:1025000022E031E0C1E0D0E0D90150E040E08D911F
:102510008F3F91F0E82FE295EF70F0E011A18F70FE
:10252000BE0101C0660F8A95EAF7962F9095912318
:1025300091A382A1862B82A34F5F5F4F4530510547
:1025400031F72B5F3F4F81E026313807E9F6DF9105
:10255000CF911F910895CF93DF93AC01A62FB0E0E8
:1025600085E0689FF0011124EE5FFE4F75E081E089
:1025700060E091919F3F81F0C92FC295CF70D0E06C
:1025800028A130E09F7002C0359527959A95E2F713
:10259000982F20FD90E0692B880F715051F7A40F00
:1025A000B51F6C93DF91CF910895A4E1B0E0EBEDFE
:1025B000F2E10C94912680911601811126C084E1EC
:1025C000E4E4F1E0DE01119601900D928A95E1F7C5
:1025D000FE013196A2E0B1E0CE01459620812C9318
:1025E000218111962C931197228112962C93129788
:1025F000238113962C931397248114962C9314976C
:10260000359615968E179F0749F78091160194E02D
:10261000811190E09093E50284E0891B8093D402BD
:102620000E947D1288E0EDEDF2E0DF01982F1D920F
:102630009A95E9F7E5EDF2E0DF011D928A95E9F759
:1026400084E00E946C130E943C036496E2E00C94C8
:10265000AD26A8E0B0E0EFE2F3E10C948D268E0108
:102660000F5F1F4F88E0F80111928A95E9F7F12C6E
:102670006F2DC8010E94AB12F394F4E0FF12F8CF63
:1026800048E050E0B80185ED92E00E94CC267C0144
:1026900021E0892B09F420E0E114F10441F088E005
:1026A000F801A5EDB2E001900D928A95E1F76091F5
:1026B000E50270E063527D4F44E085ED92E00E94B8
:1026C0006D1381E090E0E114F10411F40E941812FE
:1026D0002896E6E00C94A9260895FF920F931F9385
:1026E000CF93DF93F82E092F162FD72FC42F222335
:1026F00049F081E0809371020E94EF1E9093700276
:1027000080936F02809171028823A1F080916F0203
:10271000909170020E94071F059760F0EF2DF02F37
:10272000A12FBD2FCE0FDF2FD11DEC17FD0739F4E0
:1027300010927102CDB7DEB7E5E00C94AA26819124
:102740008D93F3CF0E94BC0E089580917402811185
:1027500007C00E945A26882351F081E080937402BA
:1027600081E090917402913009F080E0089582E058
:10277000809374020E945526F3CF0E94A213809387
:1027800016010E94A51381110E940B1408950E9446
:10279000A513811102C00E940E14089581E090914A
:1027A00075029A3008F080E008950F931F93CF933D
:1027B000DF93EC018B01809175028A30B8F4B80187
:1027C000CE010E945914C82F811122C08091750238
:1027D0008F3FB9F40E94EF1E9093730280937202B0
:1027E0008C2FDF91CF911F910F91089580917202EC
:1027F000909173020E94071F843F914000F7C0E050
:10280000EFCF8F5F809375028A3020F7C1E0E8CF69
:1028100010927502E5CF0E94A71B08950E94AA1B83
:102820000895B0E0A0E0E7E1F4E10C948C26790192
:10283000C82F880FDD0B41155105A9F0FE0193E06B
:10284000EE0FFF1F9A95E1F7E95EFE4F81819281BD
:102850008A589D4F208130E04217530708F49A01AF
:10286000A9010E94D926CE010E94931CD82E88234C
:10287000D1F001151105B9F083E0CC0FDD1F8A9569
:10288000E1F7FE01E95EFE4F438150E004171507B2
:1028900008F4A801C95EDE4F6C817D816A587D4FC6
:1028A000C7010E94D9268D2DCDB7DEB7E7E00C9485
:1028B000A8260E94531508950E946A150895A4E061
:1028C000B0E0E5E6F4E10C948F2660918B02709104
:1028D0008C0280918D0290918E020E94161F11E051
:1028E000643671058105910518F10E949D116E5F96
:1028F0007F4F8F4F9F4F69837A838B839C8310E038
:1029000000E030E020E044E050E0BE016F5F7F4F28
:1029100082E00E941114182F882351F00E94FB1EA0
:1029200060938B0270938C0280938D0290938E0241
:10293000812F2496E4E00C94AB26B0E0A0E0E3EA1B
:10294000F4E10C9489267C015B016A010E94CE139C
:1029500001E010E0882311F00AE010E0C1E0D0E0CF
:10296000B501C701F6010995811104C021960C1724
:102970001D072CF4CDB7DEB7EAE00C94A526CC9F5A
:102980009001CD9F300D300D112490E080E045E3A3
:102990004A95F1F70000019682179307C1F7E0CF3F
:1029A000A5E0B0E0E6EDF4E10C9489265B01E0904F
:1029B000BA01F090BB0101E010E09E012B5F3F4F98
:1029C00050E040E070E060E080E00E941114182FB9
:1029D000882309F44BC067018FEFC81AD80A6091A9
:1029E0008702709188028091890290918A020E94E8
:1029F000161F643671058105910580F104E010E031
:102A00009E012F5F3F4F50E040E070E060E081E0CA
:102A10000E941114F82E64E070E0C6010E9425188F
:102A200011E09D81981310E01F2159F10E94FB1EB7
:102A300060938702709388028093890290938A0240
:102A400089819A81AB81BC818093830290938402B7
:102A5000A0938502B093860211E013C064E070E099
:102A6000C6010E9425189D818913C8CFF701818175
:102A70009281A381B48189839A83AB83BC83111132
:102A8000DFCF8091830290918402A0918502B09162
:102A90008602F50180839183A283B383812F2596DB
:102AA000EAE00C94A5260F931F93CF93DF93EC01DC
:102AB0008B0140ED54E10E949D14882331F04FE5D5
:102AC00054E1B801CE010E949D14DF91CF911F9176
:102AD0000F9108950F931F93CF93DF93C091BA0185
:102AE000D091BB01CE01019624E0FB01DC010190F5
:102AF0000D922A95E1F764E070E00E942518888322
:102B00006D817E818F81988500917F021091800276
:102B1000209181023091820260177107820793072A
:102B200051F060937F0270938002809381029093B2
:102B300082020E948011DF91CF911F910F91089521
:102B40000E9430210E94020F0E943D2108950E94A0
:102B500042210E947C0F0E945C2108950E94881EE1
:102B60000E9416210E94E80E0E94A0150E94A7153F
:102B70000E94F60EFBCF8091950280FF0DC0609100
:102B8000340170E0660F771F6038710570F56115CC
:102B9000710569F1862F089581FF07C060913401A6
:102BA00084E0689FB0011124EFCF6091340182FD71
:102BB0000AC0809194028823A9F02091330160918A
:102BC0003401821710F088E0ECCF869FC0011124F9
:102BD00033E0880F991F3A95E1F7622F70E00E9469
:102BE0006726D2CF68E070E0D5CF8FE7089581E007
:102BF00008958091950280FF0CC06091300170E0D3
:102C000075956795759567956115710549F1862FDD
:102C1000089581FF06C06091300170E07595679559
:102C2000F3CF6091300182FD0BC090919302992304
:102C3000A1F060912F0180913001961738F0682F34
:102C400070E06038710500F38FE70895899FC00137
:102C5000112470E00E946726F4CF61E070E0D7CFC6
:102C600081E008958D3E31F40E94BB1581958093DB
:102C7000990208958E3E19F40E94BB15F8CF8F3E3D
:102C800031F40E94BB158195809398020895803F8E
:102C900019F40E94BB15F8CF893F29F40E94F91559
:102CA00080939A0208958A3F21F40E94F915819534
:102CB000F7CF8B3F31F40E94F915819580939B02E9
:102CC00008958C3F19F40E94F915F8CF9FE0980FF2
:102CD000983070F4815F990B21E030E001C0220F41
:102CE0008A95EAF780919702822B80939702089544
:102CF0008D3F31F480919502816080939502089513
:102D00008E3F21F4809195028260F7CF8F3FB9F713
:102D1000809195028460F1CF409198028D3E59F4E4
:102D20008091990287FF0DC01092990241110BC04A
:102D30001092940208C08E3E81F480919902181678
:102D40009CF3442381F080919A0290919B02892BFD
:102D500009F05AC01092930208958F3E49F447FF3C
:102D6000F0CF10929802809199028111ECCFE0CFC0
:102D7000803F19F41416ACF3E4CF90919A02893F86
:102D800029F41916F4F610929A02DBCF8A3F19F44F
:102D900097FFD7CFF8CF90919B028B3F29F497FFF5
:102DA000D0CF10929B02CDCF8C3F19F41916CCF3E3
:102DB000C8CF9FE0980F983090F4815F990B21E085
:102DC00030E0B90102C0660F771F8A95E2F7CB01A8
:102DD000809590919702892380939702B2CF8D3F7F
:102DE00031F4809195028E7F80939502AACF8E3F19
:102DF00021F4809195028D7FF7CF8F3F09F0A1CF0D
:102E0000809195028B7FF0CF08950E94EF1E9C0168
:102E10009091980280919902982B21F03093920220
:102E20002093910290919A0280919B02982B21F01D
:102E30003093900220938F0286E992E00E94441D15
:102E40000895A6E0B0E0E7E2F7E10C94902686E072
:102E5000E6E9F2E0DE01119601900D928A95E1F724
:102E6000109298021092990210929A0210929B026C
:102E70008B819C81892B81F08091910290919202AB
:102E80000E94071FAC0190919402992391F18091C7
:102E9000350184171506D0F18D819E81892B91F023
:102EA00080918F02909190020E94071FAC01909137
:102EB0009302992309F46BC08091310184171506A0
:102EC00008F473C0BE016F5F7F4F86E992E00E94F5
:102ED000401E81110E94051786E0FE013196A6E989
:102EE000B2E001900D928A95E1F72696E3E00C940A
:102EF000AC26209136018AE0289F900111242417E6
:102F0000350750F69F5F9093940202C09F3FD1F720
:102F10001B81112359F00E94BB159FEF11160CF471
:102F200091E0899F802D1124809398021C811123A8
:102F300059F00E94BB159FEF11160CF491E0899F88
:102F4000802D11248093990230919802332309F443
:102F5000A3CF20919902222309F49ECF45EB34039D
:102F6000C0011124992359F09093980245EB240352
:102F700090011124332339F0309399028DCF81E0F1
:102F800080939802F3CF81E08093990285CF2091BE
:102F900032018AE0289F900111242417350708F098
:102FA00091CF9F5F9093930202C09F3FD1F71D8105
:102FB000112359F00E94F9159FEF11160CF491E0BE
:102FC000899F802D112480939A021E81112359F02C
:102FD0000E94F9159FEF11160CF491E0899F802D46
:102FE000112480939B0230919A02332309F46ACF13
:102FF00020919B02222309F465CF45EB3403C001E5
:103000001124992359F090939A0245EB24039001DF
:103010001124332339F030939B0254CF81E0809305
:103020009A02F3CF81E080939B024CCF86E0E6E9E1
:10303000F2E0DF011D928A95E9F710929402109256
:1030400093021092950208950895FC01680F791F6C
:103050008FEF91E3E617F70709F40895219182278E
:1030600028E030E087FF06C0880F8927215031090A
:10307000C9F7F0CF880FFACFCF93DF93EC0197FF1A
:103080000CC0FB018281882341F00E947D18CE0193
:103090009F770E94F7180E94CE1881E0DF91CF91B0
:1030A00008959091E702923071F48A3050F490E0E4
:1030B00009966AE070E00E946726875A0E948B0595
:1030C00008958650FBCF0E941C0408958CE090E088
:1030D0000E94E22690E0B0E0A0E08093E7029093A7
:1030E000E802A093E902B093EA0208956091E70232
:1030F0008CE090E00E94F02608950E94271D86959E
:1031000081708093EC020E94271D81708093E602FB
:103110008091E702813039F48091EC02882319F024
:1031200089E30E948B050E941B0D8093EB020E9495
:103130002E0D0E943E0D8091E702813089F0882398
:1031400059F0823091F0843021F18FE39CE90197AE
:10315000F1F700C00000089582EE0E948904F5CFC7
:1031600088E193E00E94D602F0CF8091E6028111BF
:1031700003C083E50E948B0582EE0E9489048FE3E1
:103180009CE90197F1F700C0000087E50E948B05DC
:10319000DCCF86EE0E948B0588E1F8CF8091E702B4
:1031A000813079F0882349F08230B1F08430E9F041
:1031B0008091EB020E942B0D089582EE0E941A0569
:1031C000F7CF8CE20E948B058091EC02882381F37B
:1031D00089E30E948B05ECCF82EE0E941A05809154
:1031E000E6028111E5CF83E5F4CF88E2F2CF0F93B9
:1031F0001F93CF93DF938C01CCE0D0E0C8010C2E5D
:1032000002C0969587950A94E2F78F700E94511834
:103210002497CC3F8FEFD80789F7DF91CF911F918B
:103220000F9108950F931F93CF93DF93EC018B01C0
:10323000FB018281882361F00E941B0DCE01825E1A
:103240009C458530910520F48093E7020E94761812
:10325000B801CE010E943C18DF91CF911F910F91D0
:103260000895CF93DF93EC01FB018281882309F459
:1032700033C1C430FDE5DF07C0F5CB3F9CE5D9077E
:1032800030F49E0122503C4524313105B0F50E94B6
:10329000210E9093D3028093D202C1318CE5D807DE
:1032A00009F4EEC008F069C0C930ECE5DE0709F4A6
:1032B000D5C0C8F5C5308CE5D80709F4C7C000F5FE
:1032C000C330ECE5DE0709F4B9C008F0BBC0C2307A
:1032D000DC4509F4ADC08091D2029091D3020E94E6
:1032E0002F0E0E941B0880E008C0C236EDE5DE0705
:1032F00071F2C63AFDE5DF0751F2DF91CF910895F3
:103300008091D2028062C7309CE5D90709F493C04E
:103310008091D2028061C830DC4508F48CC0809175
:10332000D202806488C08091D2028B7FCD30FCE5D0
:10333000DF0709F480C098F48091D2028E7FCB30F1
:103340009CE5D90709F477C08091D2028C60CC301B
:10335000DC4508F470C08091D2028D7F6CC08091F2
:10336000D2028F7ECF30FCE5DF0709F464C008F499
:103370007BC08091D2028F7D5EC0CE3F9CE5D90795
:1033800009F47AC050F5C531FCE5DF0709F486C0C1
:1033900098F48091D202837FC3319CE5D90709F468
:1033A0004AC008F471C00E941B089091D202892F74
:1033B00097FB87F980583FC0CC3FFCE5DF0709F455
:1033C00049C008F055C08091D3028160CB3FDC45F5
:1033D00009F081CF8093D3027ECFC230EDE5DE07C6
:1033E00009F468C0A8F4C1158DE5D80709F452C0E6
:1033F0008091D3028360C130DD4560F38091D302B8
:10340000982F909591708E7F892B90FB81F9E2CF58
:10341000C236EDE5DE0709F451C0C63AFDE5DF0727
:1034200009F453C0C330DD4509F055CF80E043C0F7
:103430008091D20281608093D2024DCF8091D202DE
:103440008260F9CF8091D2028460F5CF8091D20260
:103450008860F1CF8091D3028260BCCF0E941B08AC
:103460008091D2028068E7CF8091D202877FE3CF3C
:103470008091D3028E7FAECF8091D3028D7FAACF71
:103480008091D2028F7BD7CF0E941B088091D202FD
:103490008F77D1CF8091D3028C7F9CCF8091D20245
:1034A00082FB992790F921E0922790FB82F990FB0B
:1034B00083F9C1CF81E00E94C60E0DCF9091D20258
:1034C000892F8F7E94FF8061B6CF9091D202892F91
:1034D0008E7F90FF8160AFCF81E00FCFCF93DF93DE
:1034E000EB0186319C4511F50E941B0D9A819923B1
:1034F00099F08A7A91E009F490E090939C0281110E
:1035000009C089E20E94F30C0E945F0D80E0DF9108
:10351000CF91089585E3F6CF80919C02811104C07C
:1035200089E20E94FB0CF0CF85E3FBCF81E0EFCF77
:103530000F931F93CF93DF93C42FD22FFC0182816F
:103540008823C9F040939F020E94EF1E90939E0231
:1035500080939D0280E28C0F883040F4C77081E038
:1035600001C0880FCA95EAF70E949405DF91CF91B8
:103570001F910F91089510919F02141332C08091F2
:103580009D0290919E020E94071F883C910548F57C
:10359000C0E2CD0F1D17B9F080E2810F883040F4F2
:1035A000177081E001C0880F1A95EAF70E949B0509
:1035B000C83048F481E09D2F977001C0880F9A951C
:1035C000EAF70E949405802F0E948B05C83070F6A0
:1035D000D77081E001C0880FDA95EAF70E949B0559
:1035E000C5CF80E28C0F883008F6C77081E001C03B
:1035F000880FCA95EAF7F2CF0F939C01CB01243FC5
:103600004CE5340759F1A8F4293DFCE53F0701F1E9
:103610002A3D4CE53407D1F1283D3C4591F406E2C2
:1036200021EE41EE68ED7CE50E94981A80E00F9152
:103630000895263FFCE53F07E9F0B0F0273F3C4501
:10364000F9F0FC018281882339F110929F02EFCFBB
:1036500007E225EE45EE69ED7CE5E6CF06E221EED8
:1036600040EE64EF7CE5E0CF07E225EE44EE65EF47
:103670007CE5DACF06E221EE42EE66EF7CE5D4CFC0
:1036800007E225EE46EE67EF7CE5CECF08E221E0CB
:1036900045EE6AED7CE5C8CF81E0C9CF8EE1499B5C
:1036A00002C08150E1F7499BFECF0895599880E20E
:1036B0008A95F1F7599A0895FC013BE03A95F1F7A4
:1036C00098E020E080E031E040E14A95F1F7880F92
:1036D000499B02C08160232742E04A95F1F7000030
:1036E00040E14A95F1F7915079F790E19A95F1F719
:1036F00099B132E03A95F1F7000040E14A95F1F7CF
:103700009695917092272081920F90830895A1E061
:10371000B0E0EDE8FBE10C948D2619828C017C0170
:10372000E60EF11C0E151F0541F481E099819111FF
:1037300080E02196E6E00C94A9260E944E1BCE0163
:1037400001960E945C1BF80181938F01EBCF519A87
:10375000599A08955198599AE99AE9E6F0E08081DA
:10376000837F808308956150770B91E001C0990FAA
:103770006A95EAF720E031E0911108C0222391F028
:10378000599A80E28A95F1F759980895492F48236C
:1037900039F0599A232740E24A95F1F79695ECCFF4
:1037A0005998F9CF5998EDCFFF920F931F93CF936C
:1037B000DF93EC018C01060F111DC017D10729F40E
:1037C000CDB7DEB7E5E00C94AA26F9900E94561B0F
:1037D00068E08F2D0E94B31BF0CF1F920F920FB69F
:1037E0000F9211240F931F932F933F934F935F9347
:1037F0006F937F938F939F93AF93BF93EF93FF93B9
:10380000CF93DF930F92CDB7DEB719820E944E1B84
:10381000CE0101960E945C1B082F06950695069521
:10382000282F22952570902F9570290F922F937035
:1038300026952695920F982797708981982B09F0E5
:103840005CC0043008F059C080E18A95F1F7599ABC
:10385000519A82E08A95F1F700C0599888E0089F54
:1038600080011124D801A95EBE4F1696ED91FC91FE
:1038700017973097A9F06091BA017091BB01149627
:103880002D913C911597260F371F11968D919C9184
:103890001297680F791F13964C9113978C91099585
:1038A000F801E95EFE4F6381662351F02091BA0171
:1038B0003091BB0184819581820F931F0E94D41B9C
:1038C0000E94561B80E18A95F1F759985198599AB0
:1038D00080E18A95F1F7F801E95EFE4F6081662389
:1038E00051F02091BA013091BB0181819281820F08
:1038F000931F0E94871B0E944E1B0F90DF91CF9158
:10390000FF91EF91BF91AF919F918F917F916F91B7
:103910005F914F913F912F911F910F910F900FBE8B
:103920000F901F9018950F931F93CF93DF93EC0187
:1039300004970CF04CC0F894519A599885E08A95F8
:10394000F1F700009C2F969595708C2F8570980F3D
:10395000892F83709695969523E0CC0FDD1F2A95CD
:10396000E1F7980F8E01092B0E94561B00C068E0FA
:10397000802F0E94B31B80E18A95F1F75198599AE4
:10398000499B1EC087E090E049991CC0FE01E95E9A
:10399000FE4F63816623F9F02091BA013091BB019B
:1039A00084819581820F931F0E94871B811113C010
:1039B000519A599A7894DF91CF911F910F91089560
:1039C00000C0DECF019729F4519A599A789480E08B
:1039D000F2CF00C0D9CF0E944E1B80E28A95F1F74A
:1039E0005998519A80E18A95F1F7C95EDE4F688156
:1039F000662351F02091BA013091BB0189819A81EF
:103A0000820F931F0E94D41B0E94561B789481E062
:103A1000D2CF9093BD018093BC0108959093A602EC
:103A20008093A50208950E94A513811103C080917F
:103A3000A0020895E091A502F091A602309729F026
:103A40000190F081E02D0995089580E008950E948D
:103A5000131D0895E091A502F091A602309799F008
:103A600020914301222359F02091D20227FF07C061
:103A7000DC012C9111962C93119726E02C93028057
:103A8000F381E02D09950895E091A502F091A60239
:103A9000309739F022E0DC012C930480F581E02D91
:103AA000099508952091A3023091A402281739079F
:103AB00071F09093A4028093A302E091A502F0918B
:103AC000A602309721F00680F781E02D0995089530
:103AD0002091A1023091A2022817390771F090932A
:103AE000A2028093A102E091A502F091A602309774
:103AF00021F00084F185E02D09950895FC013296AE
:103B000080914301882321F08091D2029EE187FFBA
:103B100096E080E0915008F4089521912223D1F39A
:103B20008F5FF8CF662301F1209143012223F1F04A
:103B30002091D20227FF1AC0462F469546954695FA
:103B40004E3190F4677021E030E002C0220F331F45
:103B50006A95E2F7840F911DFC01828190E0282391
:103B6000392381E0232B69F480E00895FC0132962B
:103B700008962191261721F0E817F907D1F7F4CF1D
:103B800081E008959C01FC0132969FEF80E0419115
:103B9000461751F09F3F19F4411101C0982F8F5FD4
:103BA0008630A9F79F3F09F40895290F311D97FD2D
:103BB0003A95F90162830895FC01329608962191A5
:103BC000261303C0DF0111971C92E817F907B9F714
:103BD0000895E62FE695E695E695EE3168F4E80F50
:103BE000F92FF11D677021E030E001C0220F6A95C6
:103BF000EAF78281822B82830895E62FE695E69587
:103C0000E695EE3170F4E80FF92FF11D677021E0B1
:103C100030E001C0220F6A95EAF7209582812823BF
:103C20002283089520914301222339F02091D2026A
:103C300027FF03C00E94E91D08950E94C21D089538
:103C400020914301222339F02091D20227FF03C0A3
:103C50000E94FD1D08950E94DC1D0895FC0132960E
:103C600080914301882351F08091D20287FF06C0E2
:103C70008EE1DF011D928A95E9F7089586E0F9CF7C
:103C800046E050E00E94CC2621E0892B09F420E098
:103C9000822F089508950E944A1E0895811106C03A
:103CA00081E08093A7020E944B1E089582E0F9CF25
:103CB00083E08093A7020E944B1E08950E944E1E2F
:103CC000089581E08093A7020E944B1E08950E94F0
:103CD000611E0895089508950E946B1E0895089529
:103CE00008950E946A1E0895CF930E946F1E0E943D
:103CF00029130E94701EC0E08C2F0E940D128111AA
:103D000005C0CF5FC830C1F7CF91089581E0FCCFE7
:103D100085B7806885BF85B7806885BF08951F9285
:103D20001FB61F9211248F939F93AF93BF938091DF
:103D3000A802811113C08091ED029091EE02A09132
:103D4000EF02B091F0024196A11DB11D8093ED02EA
:103D50009093EE02A093EF02B093F002BF91AF9167
:103D60009F918F911F901FBE1F9018958091F50213
:103D7000843031F10E94B5031092A80288E190E0EE
:103D800020E40FB6F894A895809360000FBE2093AE
:103D9000600083B7817F846083BF83B7816083BF06
:103DA0007894889583B78E7F83BF0FB6F894A895D3
:103DB00080916000886180936000109260000FBE67
:103DC00008950E941B080E94BA03089582E084BDF2
:103DD00093E095BD9AEF97BD80936E0008952FB73D
:103DE000F8948091ED029091EE02A091EF02B091D3
:103DF000F0022FBF08952FB7F8946091ED027091F3
:103E0000EE028091EF029091F0022FBF08959C0185
:103E10004FB7F8948091ED029091EE02A091EF02DD
:103E2000B091F0024FBF821B930B0895CF92DF92A7
:103E3000EF92FF922FB7F894C090ED02D090EE026F
:103E4000E090EF02F090F0022FBFA7019601261B31
:103E5000370B480B590BCA01B901FF90EF90DF9067
:103E6000CF90089578941F921FB61F9211248F93BC
:103E70009F93AF93BF938091ED029091EE02A0913A
:103E8000EF02B091F0020196A11DB11D8093ED02E9
:103E90009093EE02A093EF02B093F002BF91AF9126
:103EA0009F918F911F901FBE1F90189581E0809366
:103EB000E00080E28093D8001092C9008FE19EE478
:103EC0000197F1F700C0000087E090EBDC018093E0
:103ED000FE029093FF02A0930003B093010388E1D8
:103EE0009CE00FB6F894A895809360000FBE909365
:103EF0006000FFCF88E19CE00FB6F894A89580930E
:103F000060000FBE90936000FFCF8091CC020895B7
:103F100008959C0182E08093E9009FEF8091E80082
:103F2000915085FD06C085ED8A95F1F7000091114D
:103F3000F5CF8091E80085FF0CC050E040E066E0DE
:103F400070E0C9010E94CE218091E8008E778093B5
:103F5000E8000895CF93DF93EC018091430188231B
:103F6000B1F18091D20287FF32C060E282E080939B
:103F7000E9008FEF9091E800815095FD06C095ED26
:103F80009A95F1F700008111F5CF8091E80085FF47
:103F90001BC08091430170E050E040E0811104C0FB
:103FA00050E040E068E070E0CE010E94CE218091B8
:103FB000E8008E778093E80080E2FE01ACEAB2E090
:103FC00001900D928A95E1F7DF91CF91089568E015
:103FD00081E0CDCF8093A9027093AB026093AA02D7
:103FE0008091F502843001F582E08093E9008FEF43
:103FF0009091E800815095FD06C095ED9A95F1F7F6
:1040000000008111F5CF8091E80085FF0DC050E0E0
:1040100040E063E070E089EA92E00E94CE21809166
:10402000E8008E778093E8000895BC0184E00E9448
:10403000EA1F0895BC0183E00E94EA1F0895809161
:10404000F402811109C00E945E230E94BB2380916B
:10405000E20084608093E20008951092F4020895D3
:104060000E94611E08956091F10281E0611101C01A
:1040700080E00E94581E08959091F50281E09430EE
:1040800009F080E06091F1020E945E1E089542E016
:1040900061EC81E00E94DA2242E261EC82E00E945F
:1040A000DA229091F50281E0943009F080E060918D
:1040B000F1020E944E1E08958091F702833009F4A8
:1040C00061C030F48130D1F1823009F49EC008958E
:1040D0008A3009F48AC08B3009F46FC0893009F046
:1040E00050C08091F602813209F04BC08091FA02F3
:1040F0009091FB02029708F044C08091E800877F0E
:104100008093E8008091E80082FF37C09091F3002F
:104110008091F200029731F48091F100813011F02A
:10412000863021F48091F1008093CC028091E800E8
:104130008B778093E8000E940E2323C08091F602C3
:10414000813AF9F48091E800877F8093E8008091BC
:10415000FA029091FB02892B61F460E28CEA92E012
:1041600070E00E941D228091E8008B778093E80028
:10417000089560E090E080E0F3CF8091F502811136
:10418000C1CF08958091F602813AD9F78091FA0261
:104190009091FB02892BA9F78091E800877F80939B
:1041A000E8008091E80080FFFCCF8091430180937C
:1041B000F1008091E8008E77BCCF8091F6028132C9
:1041C00001F78091FA029091FB02892BD1F6809140
:1041D000E800877F8093E8000E940E238091F80218
:1041E000809343010E941B0808958091F60281325A
:1041F00041F68091E800877F8093E8000E940E23BB
:104200008091F9028093CD0208958091F602813A5F
:1042100009F0B7CF8091E800877F8093E800809114
:10422000E80080FFFCCF8091CD02C1CF84B7877FAB
:1042300084BF0FB6F894A895809160008861809340
:104240006000109260000FBE80E890E00FB6F89416
:1042500080936100909361000FBE0E94671E0895D5
:104260000E945E230E94BB23E2EEF0E08081846026
:10427000808378940E943A26089587E391E00E9413
:104280000E1D08958091F502853031F48091F5027C
:10429000853019F00E94E11E08950E94B61E80919B
:1042A000F302882399F30E94741E882379F30E94F5
:1042B000B8210E941B08EACF08950E94602108954A
:1042C000292F33272330310519F168F421303105C6
:1042D00009F444C02230310509F445C090E080E083
:1042E00030E020E025C02132310549F1223231058C
:1042F000A9F780E490E029E234E061157105C1F08E
:1043000086EB90E023E733E06130710589F0E6CF7A
:1043100099278130910581F0009729F00297F1F6F5
:10432000ECEEF2E002C0E2E2F3E0849190E09F0163
:10433000FA01318320830895E0E1F3E0F6CF89E0CC
:1043400090E028E333E06115710591F389E090E096
:1043500021E533E06130710559F3C0CF82E190E08F
:1043600021E633E0E5CF8BE390E026E233E0E0CFD7
:1043700080E189BD82E189BD09B400FEFDCF809155
:10438000D8008F7D8093D8008091E0008260809378
:10439000E0008091E00081FDFCCF0895AF92BF92D4
:1043A000CF92DF92FF920F931F93CF93DF936C0115
:1043B000EB018A010E942D23F82E811123C00115E3
:1043C000110539F0F80180819181C81BD90BC80E05
:1043D000D91EB12CA12C2097A9F08091E80085FD71
:1043E00022C08091E8008E778093E80001151105C6
:1043F000A1F0F80180819181A80EB91EB182A0823E
:1044000085E0F82E8F2DDF91CF911F910F91FF90B6
:10441000DF90CF90BF90AF9008950E942D23882306
:10442000D1F2F82EEFCFF60181916F018093F10068
:104430002197FFEFAF1ABF0ACECFFC018091FC029B
:104440009091FD0286179707A0F06115710529F478
:104450009091E8009E779093E80090E061157105D7
:1044600051F4911108C08091E80082FF34C080E0CF
:104470000895BC01F2CF8091F5028823C1F1853007
:10448000C1F18091E80083FD30C08091E80082FD99
:10449000EACF8091E80080FFE1CF8091F300209186
:1044A000F200382F6115710519F02830310558F0E8
:1044B00091E02830310509F090E02091E8002E7756
:1044C0002093E800CBCF81918093F1006150710976
:1044D0002F5F3F4FE7CF8091F502882341F0853071
:1044E00041F08091E80083FFBECF81E0089582E033
:1044F000089583E00895FC018091FC029091FD02F3
:1045000086179707A0F06115710529F48091E800DE
:104510008E778093E80090E06115710551F4911158
:1045200008C08091E80082FF35C080E00895BC019A
:10453000F2CF8091F5028823C9F18530C9F18091CD
:10454000E80083FD31C08091E80082FDEACF8091D0
:10455000E80080FFE1CF8091F3002091F200382F36
:104560006115710519F02830310558F091E02830B7
:10457000310509F090E08091E8008E778093E800A3
:10458000CBCF84918093F1003196615071092F5FF8
:104590003F4FE6CF8091F502882341F0853041F00E
:1045A0008091E80083FFBDCF81E0089582E0089507
:1045B00083E00895982F973028F08F708093E9005A
:1045C00081E008959093E900242F762F50E098170A
:1045D00031F07091EC002091ED005091F00021FD40
:1045E00002C09F5FE8CF3091EB003E7F3093EB003D
:1045F0003091ED003D7F3093ED003091EB00316064
:104600003093EB007093EC002093ED005093F0009A
:104610002091EE0027FDE5CF80E008958091F6021D
:1046200087FF13C08091E80082FF06C08091E800F8
:104630008B778093E80004C08091F5028111F2CF5E
:1046400008958091F5028823D9F38091E80080FFD6
:10465000F8CF8091E8008E77ECCF2091E400309184
:10466000E50095E6A9012091EC00822F817020FFE2
:1046700006C08091E80080FF06C080E00895209188
:10468000E80022FD1AC08091F502882389F0853068
:1046900089F08091EB0085FD0FC02091E4003091FE
:1046A000E50042175307F9F29150E1F684E00895CE
:1046B00082E0089583E0089581E008950E94CD236B
:1046C0000E94D523E0EEF0E0808181608083E8EDF8
:1046D000F0E080818F77808319BCA7EDB0E08C91EA
:1046E0008E7F8C9380818F7E80831092F402089558
:1046F0000F931F93CF93DF930E94CD230E94D52366
:10470000C8EDD0E088818F7788838881806888832E
:1047100088818F7D888319BC1092F5021092F10276
:104720001092F3021092F20200EE10E0F801808184
:104730008B7F808388818160888342E060E080E0B5
:104740000E94DA22E1EEF0E080818E7F8083E2EE4B
:10475000F0E0808181608083808188608083F801BF
:1047600080818E7F8083888180618883DF91CF9173
:104770001F910F910895E8EDF0E080818F7E808396
:10478000E7EDF0E080818160808384E082BF81E09A
:104790008093F4020E9478230895E8EDF0E0808190
:1047A0008E7F80831092E20008951092DA001092BA
:1047B000E10008951F920F920FB60F9211242F93CC
:1047C0003F934F935F936F937F938F939F93AF9399
:1047D000BF93EF93FF938091E10082FF0BC0809124
:1047E000E20082FF07C08091E1008B7F8093E100AF
:1047F0000E9439268091DA0080FF19C08091D8008C
:1048000080FF15C08091DA008E7F8093DA0080915E
:10481000D90080FF96C080E189BD82E189BD09B4DD
:1048200000FEFDCF81E08093F5020E941F20809161
:10483000E10080FF19C08091E20080FF15C08091E7
:10484000E2008E7F8093E2008091E200806180939D
:10485000E2008091D80080628093D80019BC85E086
:104860008093F5020E9433208091E10084FF2BC0E9
:104870008091E20084FF27C080E189BD82E189BD8B
:1048800089B5982F917080FFFBCF8091D8008F7DE4
:104890008093D8008091E1008F7E8093E100809129
:1048A000E2008F7E8093E2008091E200816080933D
:1048B000E2008091F102882309F449C084E08093EA
:1048C000F5020E943C208091E10083FF29C0809185
:1048D000E20083FF25C08091E100877F8093E100A3
:1048E00082E08093F5021092F1028091E1008E7FC8
:1048F0008093E1008091E2008E7F8093E2008091BE
:10490000E20080618093E20042E060E080E00E948B
:10491000DA228091F00088608093F0000E943020BD
:10492000FF91EF91BF91AF919F918F917F916F9187
:104930005F914F913F912F910F900FBE0F901F905D
:10494000189519BC1092F5020E942D2070CF80910D
:10495000E30087FD93E09093F502B3CF1F920F928F
:104960000FB60F9211242F933F934F935F936F9342
:104970007F938F939F93AF93BF93CF93DF93EF93E7
:10498000FF93D091E900DF708091EC00C82FC170D7
:1049900080FDC0E81092E9008091F000877F80934D
:1049A000F00078940E94F2241092E9008091F000C7
:1049B00088608093F000CD2BCF70C093E900FF9109
:1049C000EF91DF91CF91BF91AF919F918F917F91A7
:1049D0006F915F914F913F912F910F900FBE0F906C
:1049E0001F901895AAE2B0E0E8EFF4E20C9490264C
:1049F00086EF92E02091F100FC012193CF01F2E0DB
:104A00008E3F9F07B9F70E945C208091E80083FFEA
:104A10001EC18091F6029091F7029A3008F017C1FA
:104A2000E92FF0E0EE5CF84D0C947B26803899F08D
:104A3000823809F00CC18091FA028F70873008F03B
:104A400006C18093E9008091EB0085FB882780F9FF
:104A50001092E90006C08091F2029091F302911148
:104A600082609091E800977F9093E8008093F10036
:104A70001092F1008091E8008E77E5C0882309F458
:104A8000D3C0823009F0E3C08091F8028111D6C012
:104A90008091FA028F702FEF280F263008F0D7C0D0
:104AA0008093E9002091EB0020FFC8C0933031F4DF
:104AB0008091EB0080628093EB00C0C09091EB008E
:104AC00090619093EB0021E030E001C0220F8A95C5
:104AD000EAF72093EA001092EA008091EB008860E8
:104AE000EACF8111B4C01091F8021F778091E300E2
:104AF0008078812B8093E3008091E800877F80930A
:104B0000E8000E940E238091E80080FFFCCF809196
:104B1000E30080688093E30082E0111183E08093DA
:104B2000F50295C08058823008F091C08091F8025B
:104B30009091F9028C3D23E09207A1F583E08A83EE
:104B40008AE289834FB7F894DE01139620E03EE0B5
:104B500051E2E32FF0E050935700E49120FF03C0AF
:104B6000E295EF703F5FEF708E2F90E0EA30C0F07B
:104B7000C7968D939D932F5F243159F74FBF809136
:104B8000E800877F8093E8006AE270E0CE0101963A
:104B90000E941D228091E8008B778093E80057C027
:104BA000C096E7CF6091FA027091FB02AE014F5FB1
:104BB0005F4F0E945D21BC01892B09F448C0909190
:104BC000E800977F9093E80089819A810E947B2278
:104BD000E1CF8038E1F58091E800877F8093E8009D
:104BE0008091F1028093F10045CF811130C0909106
:104BF000F802923060F58091E800877F8093E800AA
:104C00009093F1020E940E238091F102882311F00B
:104C100084E005C08091E30087FDFACF81E08093B6
:104C2000F5020E94472013C08091F802813079F488
:104C300081E0933009F080E08093F3021092E90064
:104C40008091E800877F8093E8000E940E23809186
:104C5000E80083FF0AC08091E800877F8093E80026
:104C60008091EB0080628093EB00AA96E3E00C94C5
:104C7000AC260895CF938091F5028823A1F0C091CE
:104C8000E900CF709091EC00892F817090FD80E851
:104C9000C82B1092E9008091E80083FD0E94F22465
:104CA000CF70C093E900CF9108950E945E231092C7
:104CB000F5020895E8EDF0E08081806180838AE16B
:104CC0008A95F1F700C08091D9008170089597FB13
:104CD000072E16F4009407D077FD09D00E94B8265D
:104CE00007FC05D03EF4909581959F4F08957095EF
:104CF00061957F4F0895EE0FFF1F0590F491E02D11
:104D000009942F923F924F925F926F927F928F926F
:104D10009F92AF92BF92CF92DF92EF92FF920F934A
:104D20001F93CF93DF93CDB7DEB7CA1BDB0B0FB654
:104D3000F894DEBF0FBECDBF09942A883988488811
:104D40005F846E847D848C849B84AA84B984C884A7
:104D5000DF80EE80FD800C811B81AA81B981CE0F9E
:104D6000D11D0FB6F894DEBF0FBECDBFED01089583
:104D7000AA1BBB1B51E107C0AA1FBB1FA617B70781
:104D800010F0A61BB70B881F991F5A95A9F780959D
:104D90009095BC01CD010895FB01DC0104C08D910B
:104DA0000190801921F441505040C8F7881B990B9D
:104DB0000895FB01DC0102C001900D92415050406A
:104DC000D8F70895F999FECF92BD81BDF89A992739
:104DD00080B50895A8E1B0E042E050E00C941627B9
:104DE000262FF999FECF92BD81BDF89A019700B4A4
:104DF000021639F01FBA20BD0FB6F894FA9AF99A44
:104E00000FBE08950396272F0E94F1260E94F026D8
:104E1000252F0E94F126242F0C94F1260196272F8E
:104E20000E94F1260C94F026DC01CB01FC01F999DB
:104E3000FECF06C0F2BDE1BDF89A319600B40D92E6
:104E400041505040B8F70895F894FFCFDD05DD05D7
:104E50000E060E069B06B7063D063D06C2064E0729
:104E60005D075D0716253E2527263E252726712549
:084E700092252726E925F5250E
:104E78003B026692F732F49790F633F5C694933175
:104E8800363435FFFFFF010000000100000000007C
:104E980000000401000000040500000000000028D4
:104EA8000850011E0A1401851FAA1F891F1A201500
:104EB80020881F01F432F79266F533F69097363161
:104EC8009394C63534FFFFFFE200E900EA00B5001D
:104ED800B600B700CD008301CC008A01920194018D
:104EE8002102230224022502260227022A02B300F5
:104EF800B4006F007000818283E200E900EA00B527
:104F080000B600B700CD008301CC008A019201945D
:104F1800012102230224022502260227022A02B3C3
:0C4F280000B4006F0070008182837602EC
:00000001FF
